:100000000C9434000C9451000C9451000C94510049
:100010000C9451000C9451000C9451000C9451001C
:100020000C9451000C9451000C9451000C946200FB
:100030000C9451000C9451000C9451000C945100FC
:100040000C9451000C9451000C9451000C945100EC
:100050000C9451000C9451000C9451000C945100DC
:100060000C9451000C94510011241FBECFEFD8E026
:10007000DEBFCDBF12E0A0E0B1E0E4EDF6E102C0EA
:1000800005900D92A239B107D9F724E0A2E9B2E0B8
:1000900001C01D92A430B207E1F70E9434040C9411
:1000A000680B0C9400008AB1887F8AB98BB1876095
:1000B0008BB9089580E0489B03C089B18695817013
:1000C000817008951F920F920FB60F921124FF9224
:1000D0000F931F932F933F934F935F936F937F9350
:1000E0008F939F93AF93BF93CF93DF93EF93FF9340
:1000F000C2EFD2E0FF24F394F88207E010E09E0103
:1001000041E050E062E173E080ED0E94F9018093EC
:10011000E2028881382F32953F702AE08F7090E09C
:10012000239F800D911D112490930104809300045E
:100130008981382F32953F708F7090E0239F800D1A
:10014000911D11249093FF038093FE038A81382F21
:1001500032953F708F7090E0239F800D911D112488
:100160009093FD038093FC03F092FB03FF91EF91CA
:10017000DF91CF91BF91AF919F918F917F916F91BF
:100180005F914F913F912F911F910F91FF900F9091
:100190000FBE0F901F901895E1E8F0E08081886015
:1001A0008083AFE6B0E08C9182608C93789481E19B
:1001B0009AE790938900809388008081846080838F
:1001C0000895FC018091000490910104A081B18107
:1001D000662321F0411102C0222311F02F980895C7
:1001E0008A1B9B0B97FF03C09195819591090397FB
:1001F0004CF085B1805885B980910004909101043C
:10020000918380830895FC01809100049091010402
:10021000A081B181662321F0411102C0222311F097
:10022000289808958A1B9B0B97FF03C09195819591
:100230009109409754F085B191E0892785B9809163
:1002400000049091010491838083089580910004BB
:1002500090910104662389F064E170E00E942E0809
:10026000892B59F442982FEF8FE791E0215080407D
:100270009040E1F700C000C00895429A089588B107
:1002800091E0892788B92FEF3FE781E02150304086
:100290008040E1F700C000C088B1892788B908957F
:1002A000982F862F4A9B04C0992319F0892F08950F
:1002B00080E008959BB19F709BB99BB1807F892B93
:1002C0008BB92A982A9A2A9A2A9808951F93182F48
:1002D0000E945A01812F8295807F0E945A011F91AE
:1002E0000895299A0E94660183E393E10197F1F74B
:1002F0000895CF93DF93EC0102C00E9471018991B0
:100300008823D9F7DF91CF91089529980E9466013B
:1003100083E393E10197F1F708958295880F880FA1
:10032000807C860F80680E948501089581E060E0EE
:100330000E948D0180E091E00E947901089580E0A3
:1003400060E00E948D0180E091E00E9479010895B3
:100350000F931F9380E060E00E948D0100E011E0A8
:10036000C8010E94790181E060E00E948D01C8010E
:100370000E9479011F910F9108950F931F938AB1E5
:10038000806F8AB984B1866084B9299A82EC91E041
:1003900025EF30E0F9013197F1F70197D9F780E3C4
:1003A0000E945A0180E090E30197F1F780E30E94F8
:1003B0005A0186E291E00197F1F780E30E945A0129
:1003C00003E313E1C8010197F1F780E20E945A01AB
:1003D000C8010197F1F788E20E9485018FE00E9431
:1003E00085011F910F91089583E393E10197F1F740
:1003F0000895FF920F931F93F82EFB01D901411529
:100400005105E9F184EA8093BC008091BC0087FF2C
:10041000FCCF9091B900987F983009F088C08F2D5B
:100420008E7F8093BB0084E88093BC008091BC00E9
:1004300087FFFCCF9091B900987F983121F09032DE
:1004400009F075C071C024E880818093BB002093BF
:10045000BC008091BC0087FFFCCF9091B900987FD1
:1004600041505040983239F431964115510561F7A9
:1004700091E081E006C0903309F059C055C090E08A
:1004800080E00115110509F44CC0882311F428E01F
:1004900001C020E184EA8093BC008091BC0087FF0A
:1004A000FCCF9091B900987F921709F040C081E08D
:1004B000F82AF092BB0084E88093BC008091BC00D5
:1004C00087FFFCCF9091B900987F903419F0983451
:1004D00071F52AC00150104024EC10C02093BC00DC
:1004E0008091BC0087FFFCCF9091B900987F0150AC
:1004F00010409035E1F48091BB008D9301151105FA
:1005000069F784E88093BC008091BC0087FFFCCF32
:100510009091B900987F983551F48091BB008C93ED
:1005200002C0992321F090E084E98093BC00892FD8
:100530001F910F91FF9008950F931F93DF93CF9317
:1005400000D0CDB7DEB79C018B0159834A8386E981
:10055000BE016F5F7F4F42E050E00E94F9010F90B3
:100560000F90CF91DF911F910F9108951092B900D4
:100570008093B800089590E09093C5008093C400E4
:10058000E1ECF0E080818860808386E08093C200A7
:100590000895982F8091C00085FFFCCF9093C600EE
:1005A0000895FC0106C08091C00085FFFCCF9093A8
:1005B000C60091919923B9F708952F923F924F92D7
:1005C0005F926F927F928F929F92AF92BF92CF92E3
:1005D000DF92EF92FF920F931F93DF93CF93CDB7EC
:1005E000DEB7C254D0400FB6F894DEBF0FBECDBF09
:1005F0004C015B016A0120E4222E312C93E0692E2C
:10060000712C6C0E7D1E412C80E3582E27C0D982A0
:10061000CA82C6018F7390707101E81AF90AAE148C
:10062000BF0408F47501C301B401A7010E94560874
:1006300086E961E070E042E050E020E030E000E078
:1006400010E00E94F901882369F4C2010197F1F7D3
:100650008E0C9F1CCE0CDF1CAE18BF08A114B10479
:10066000B1F680E0CE5BDF4F0FB6F894DEBF0FBE71
:10067000CDBFCF91DF911F910F91FF90EF90DF9051
:10068000CF90BF90AF909F908F907F906F905F9032
:100690004F903F902F90089580E090E00E941B0BB8
:1006A000982F81E0913009F080E0089561E080E0CA
:1006B00090E00C94230B4091000450910104209190
:1006C000FE033091FF038091FC039091FD035F9343
:1006D0004F933F932F939F938F9388E891E09F933D
:1006E0008F931F9289E08F9382EF93E09F938F9374
:1006F0000E94680860E281E00E948D018DB79EB77C
:100700000C960FB6F8949EBF0FBE8DBF82EF93E09C
:100710000C94790180910304811125C00E94A801E5
:1007200060E080E00E948D0187E991E00E947901FC
:1007300060E081E00E948D018AEA91E00E947901E7
:1007400064E180E00E948D0184EB91E00E947901D8
:1007500064E181E00E948D0180EC91E00E947901CA
:1007600081E080930304089580910204882321F09E
:10077000809103048823B9F00E94A80160E080E022
:100780000E948D018AEC91E00E94790160E081E095
:100790000E948D018CED91E00E94790181E08093AF
:1007A000020410920304089580910204882321F02A
:1007B000809103048823B9F00E94A80160E080E0E2
:1007C0000E948D0180EF91E00E94790160E081E05C
:1007D0000E948D018CED91E00E94790181E080936F
:1007E00002041092030408950E94A80160E081E0D1
:1007F0000E948D0184E092E00E9479012FEF8FEF3B
:100800009DE1215080409040E1F700C00000089534
:100810000E94A80160E080E00E948D0187E192E0E3
:100820000E94790160E081E00E948D018CE292E0FB
:100830000C9479010E94A80160E080E00E948D0183
:100840008EE392E00C9479010E94A80160E080E0C0
:100850000E948D0189E592E00C9479010E94A80123
:100860008EE792E00C947901CDB7DEB769970FB6A9
:10087000F894DEBF0FBECDBF0E945300279A209A86
:100880003B9A3A9A399A439A429A419A389A529A9A
:100890008AE20E94B6028FE30E94BB0280910004AC
:1008A000909101049E878D878091000490910104AE
:1008B0009C878B870E94BD010E944C03882399F17D
:1008C0000E94A80160E080E00E948D0189E291E031
:1008D0000E9479012FEF8FEF9BE3215080409040E1
:1008E000E1F700C00000109212031092130387E595
:1008F0008093140381E180931503109216031092E4
:1009000017031092180386E38093190300E010E0A8
:1009100020E030E048E050E062E173E080ED0E94CA
:10092000F9010E9456030E94A80160E080E00E9445
:100930008D0187E391E00E947901AFEFBFEF2DE1D8
:10094000A150B0402040E1F700C000000E94A80183
:1009500060E080E00E948D018AE591E00E947901CB
:1009600060E081E00E948D018CE691E00E947901B7
:100970006CE181E00E948D01AFE0EA2EF12CB6E03F
:10098000BB2ECC24C39413E0D12EB0923203C0927C
:10099000330300E010E020E030E042E050E062E3AA
:1009A00073E086E90E94F9018FEF9FE50197F1F767
:1009B00000C00000D092320301E010E022E533E0F5
:1009C00041E050E062E373E086E90E94F90191E0C2
:1009D000E91AF108E114F104C1F6E12CF12C66E00A
:1009E000862E7724739473E0672EE0E8AE2EE1E064
:1009F000BE2EF4E09F2E6E01A6E0CA0ED11C80929E
:100A000032037092330300E010E020E030E042E077
:100A100050E062E373E086E90E94F901B2E323E368
:100A200081E0B15020408040E1F700C000C06092FA
:100A3000320301E010E022E533E041E050E062E300
:100A400073E086E90E94F9018091520381110AC086
:100A500092E3A3E3B1E09150A040B040E1F700C0C1
:100A600000C0CDCF1F928F93BF92AF921F929F92E3
:100A7000DF92CF920E9468088FEF9FE50197F1F710
:100A800000C0000083E891E00E947901F701E8517D
:100A9000FD4F8E81808392E3A3E3B1E09150A040AB
:100AA000B040E1F700C000C02FEFE21AF20A82E383
:100AB00093E3A1E081509040A040E1F700C000C066
:100AC0000FB6F894DEBF0FBECDBF94E0E916F10477
:100AD00009F095CF0E94CC0010E0F12C9AE0492E4D
:100AE000512C1D8AE12C212C312C2FE0C22ED12C2F
:100AF000DE011D96B88BAF87CE010B969A8B898B42
:100B000036E0B32EAA24A39443E0742E55E0652E5C
:100B10001C97BC8BAB8BBB89B88F2C89298F0E940B
:100B20005B03212F4F2D6D89CE010D960E94E100B0
:100B3000212F4F2D6D89CE010B960E9403016D89E7
:100B4000CE010D960E9426016D898E2D0E945001C6
:100B5000F82E8F84988889898E8B9A899F8B112390
:100B600079F00E9424040E943F0143988FEF9FEF89
:100B7000A2E081509040A040E1F700C000C0CFCF7C
:100B8000FF2009F4D1C00E94A8010E942E046CE14C
:100B900081E00E948D012FE0C216D1040CF497C0B1
:100BA0008090000490900104C12CD12C6CE16C0D5C
:100BB00081E00E948D01B0923203A092330300E0E5
:100BC00010E020E030E042E050E062E373E086E9CC
:100BD0000E94F90182E393E3A1E081509040A0409C
:100BE000E1F700C000C07092320301E010E022E59E
:100BF00033E041E050E062E373E086E90E94F901EE
:100C0000809152038823A1F0F601ED51FD4F8083BE
:100C100083E891E00E947901BFEFCB1ADB0A22E35F
:100C200083E391E0215080409040E1F700C000C094
:100C300080910004909101048815990509F46DC014
:100C40006CE180E00E948D01A1E04A1A51085F9298
:100C50004F9285E891E09F938F931F926F9281E06E
:100C600090E08C0F9D1F9F938F930E946808888D42
:100C7000998D0E94790180900004909001040FB634
:100C8000F894DEBF0FBECDBF4114510409F045C03A
:100C900043981F2DF12C68EE72E083EE92E00E94E3
:100CA0005F08892B51F40E94080410E0F12CE12C1C
:100CB000212C312C8AE0482E512CE3EEF2E0DF01AA
:100CC000262D1D922A95E9F7C12CD12C4FCFB09239
:100CD0003203A092330300E010E020E030E042E075
:100CE00050E062E373E086E90E94F901AFEFBFE5EF
:100CF0001197F1F700C000007092320301E010E09C
:100D000022E533E041E050E062E373E086E90E94CF
:100D1000F901BFEFCB1ADB0A3ECFB4E0CB16D1040A
:100D200009F044CF10E0B7CF489B08C0499B06C0EC
:100D3000109202040E948A03E12C18CF4899B8C08F
:100D4000AFE0CA16D1040CF474C00E94B403C12CE5
:100D5000D12C6CE16C0D81E00E948D01B0923203C8
:100D6000A092330300E010E020E030E042E050E0E9
:100D700062E373E086E90E94F901B2E323E381E0D4
:100D8000B15020408040E1F700C000C070923203B3
:100D900001E010E022E533E041E050E062E373E07F
:100DA00086E90E94F901809152038823A1F0F6019F
:100DB000ED51FD4F808383E891E00E9479019FEF20
:100DC000C91AD90AA2E3B3E321E0A150B040204000
:100DD000E1F700C000C00E945B036D898E2D0E9468
:100DE0005001082F811105C084E0C816D10409F014
:100DF000B0CFF601ED51FD4F108268EE72E083EE48
:100E000092E00E945F086C01892B09F040C0E1105C
:100E100036C00E940804F12CEE24E394E3EEF2E0E5
:100E2000DF01262D1D922A95E9F71F2DF02E1601C0
:100E30004BCFB0923203A092330300E010E020E0E9
:100E400030E042E050E062E373E086E90E94F9019D
:100E50008FEF9FE50197F1F700C000007092320319
:100E600001E010E022E533E041E050E062E373E0AE
:100E700086E90E94F9019FEFC91AD90A61CF0E9441
:100E8000F403109203040E948A03E12CC7CF0111DE
:100E9000E3C00E941A0461019FEFC91AD90AFF2416
:100EA000F394A3E0CA16D1040CF0B8CFF12CB6CF5E
:100EB00010E049995BCEAFE0CA16D1040CF490C0A3
:100EC0000E94D403C12CD12C6CE16C0D81E00E94F6
:100ED0008D01B0923203A092330300E010E020E0D5
:100EE00030E042E050E062E373E086E90E94F901FD
:100EF0008FEF9FE50197F1F700C000007092320379
:100F000001E010E022E533E041E050E062E373E00D
:100F100086E90E94F901809152038823A1F0F6012D
:100F2000ED51FD4F808383E891E00E9479019FEFAE
:100F3000C91AD90AAFEFBFEF22E0A150B04020405C
:100F4000E1F700C000C00E945B036D898E2D0E94F6
:100F50005001082F811116C020E040E06D89C401C6
:100F60000E94E10020E040E06D898E899F890E9407
:100F700003016D89C4010E94260184E0C816D104D2
:100F800009F0A2CFF601ED51FD4F108268EE72E03C
:100F900083EE92E00E945F086C01892B09F04EC03D
:100FA0009D89911143C00E94080480910004909192
:100FB00001049E878D8720E0402F61E0C4010E94DC
:100FC000E10020E0402F61E08E899F890E940301AB
:100FD00061E0C4010E942601F12CA1E0AD8B1ECF7F
:100FE000B0923203A092330300E010E020E030E042
:100FF00042E050E062E373E086E90E94F9018FEF7E
:101000009FE50197F1F700C000007092320301E004
:1010100010E022E533E041E050E062E373E086E96E
:101020000E94F9019FEFC91AD90A45CF0E94F40323
:10103000109203040E948A031D8AF0CE01110CC095
:101040000E941A046101BFEFCB1ADB0AFF24F3945C
:1010500022E0C216D10428CF6101E0CE97FB072E13
:1010600016F4009407D077FD09D00E94420807FCCF
:1010700005D03EF4909581959F4F089570956195A8
:101080007F4F0895AA1BBB1B51E107C0AA1FBB1FBE
:10109000A617B70710F0A61BB70B881F991F5A9504
:1010A000A9F780959095BC01CD010895FB01DC0165
:1010B00002C001900D9241505040D8F70895FB01B5
:1010C000DC018D91019080190110D9F3990B0895DD
:1010D000AEE0B0E0EEE6F8E00C943F0B0D891E891F
:1010E00086E08C831A8309838F89988D813020E86C
:1010F000920710F080E090E801979E838D83AE0107
:10110000455E5F4F698D7A8DCE0101960E949A08E7
:101110004D815E8157FD0AC02F81388542175307E4
:101120000CF49A01020F131FF80110822E96E4E0CE
:101130000C945B0BABE0B0E0E0EAF8E00C94340B0D
:101140006C017B018A01FC0117821682838181FF79
:10115000CBC19AE0592EF6012381F70123FD859139
:1011600023FF81917F01882309F45BC1853239F423
:1011700023FD959123FF91917F01953229F4B601CA
:1011800090E00E948D0AE7CF912C612C712CFFE139
:10119000F71540F19B32D9F058F49032D1F09332E8
:1011A000F1F09E3299F576FC3CC1689476F806C061
:1011B0009D3291F09033C1F4689470F8F70123FDEB
:1011C000959123FF91917F019111E1CF26C0689401
:1011D00071F8689472F8F2CF689473F8EFCF68945E
:1011E00074F8ECCF77FC19C080ED890F8A30C8F60F
:1011F00076FE05C0959C800D1124982EDFCF659C4E
:10120000800D1124682E689475F8D8CF9C3619F497
:10121000689477F8D3CF983689F2892F8F7D8554DB
:10122000833008F488C0933609F4A6C0933709F4D4
:10123000A9C0933509F4B5C0943619F0993609F070
:10124000DFC0F80177FED5C06191719181919191D4
:101250008F01272D2F76822E97FF09C090958095BC
:10126000709561957F4F8F4F9F4F689487F82AE064
:1012700030E0AE014F5F5F4F5A010E94BD0A8A19EC
:10128000A82EBA2C782C86FE0CC0E89470F8A9140D
:1012900040F484FE05C082FC03C0F82DFE7E7F2E44
:1012A000B92C74FEFAC0FE01EA0DF11D8081803375
:1012B00009F0ECC0272D297E722E73FC0EC070FE43
:1012C000FBC09A2CB61418F4960C9B18B62C862DDD
:1012D0008B196B1408F480E0B80EB61408F0EEC059
:1012E0006B1874FEEDC0B60180E390E00E948D0A99
:1012F00072FE09C088E590E071FC02C088E790E0CA
:10130000B6010E948D0AA91408F4E7C0AA94B12C72
:101310004FEFA41AB40ACE0101964C01A80EB91ED3
:10132000F50182915F01B60190E00E948D0A8A1456
:101330009B04B1F717C00C5F1F4F8FE3898388248C
:101340008394912CAE014F5F5F4F5A01E89477F878
:1013500073FC05C0862D90E08816990698F18114DB
:101360009104B9F5662009F4F6CEB60180E290E06A
:101370000E948D0A6A94F6CFF801808189830E5FFE
:101380001F4FDDCFF801A190B1908F01692D70E062
:1013900076FC02C06FEF7FEFC5010E94820A4C010C
:1013A000D5CFF801A190B1908F01692D70E076FC46
:1013B00002C06FEF7FEFC5010E94770A4C0168946D
:1013C00077F8C6CFB60180E290E00E948D0A6A9459
:1013D000C1CFF50177FC859177FE81915F01B60160
:1013E00090E00E948D0A61106A94F1E08F1A9108D2
:1013F000B6CF61917191072E000C880B990B28CF05
:10140000872CE89484F82AE030E0953739F1572D9D
:10141000597F852E9037A9F058F49835A9F09F365A
:10142000D9F0F601868197812B96EFE00C94500B52
:101430009837B9F784FE02C0689482F820E130E062
:101440000DC0689484F8F6CF74FE03C0852F8660C3
:10145000882E20E132E002C028E030E0F80187FE6B
:1014600010C061917191819191918F01FE0131962E
:101470005F01AF010E94BD0A8A19A82EE89487F87F
:1014800000CF6191719180E090E0EFCF72FC02C0DB
:10149000B39413CFB394B39410CF872D8678882359
:1014A00009F40BCFF5CFB60180E290E00E948D0ADF
:1014B00083948614C0F30BCF8B2CFBCF612C11CF00
:1014C000872D8678882309F41ECF80E271FC8BE299
:1014D00077FC8DE2B60190E014CFB60180E390E096
:1014E0000E948D0A9A940FCF8FEF9FEF9DCFFC0142
:1014F0000590615070400110D8F7809590958E0F3F
:101500009F1F0895FC016150704001900110D8F7B1
:10151000809590958E0F9F1F08950F931F93CF93E3
:10152000DF93182F092FEB018B8181FD09C01FEF7D
:101530000FEF812F902FDF91CF911F910F91089581
:1015400082FF14C02E813F818C819D81281739072D
:101550003CF4E881F981CF01019699838883108357
:101560008E819F8101969F838E83E3CFE885F985E5
:10157000812F0995892BA1F3DACFFA01AA27283008
:1015800051F1203181F1E8946F936E7F6E5F7F4F50
:101590008F4F9F4FAF4FB1E03ED0B4E03CD0670FCC
:1015A000781F891F9A1FA11D680F791F8A1F911D1F
:1015B000A11D6A0F711D811D911DA11D20D009F46F
:1015C00068943F912AE0269F11243019305D3193B1
:1015D000DEF6CF010895462F4770405D4193B3E09A
:1015E0000FD0C9F7F6CF462F4F70405D4A3318F041
:1015F000495D31FD4052419302D0A9F7EACFB4E0F2
:10160000A6959795879577956795BA95C9F70097A9
:101610006105710508959B01AC010A2E069457954A
:10162000479537952795BA95C9F7620F731F841FA1
:10163000951FA01D0895F999FECF92BD81BDF89A1E
:10164000992780B50895262FF999FECF1FBA92BD2C
:1016500081BD20BD0FB6F894FA9AF99A0FBE019693
:1016600008952F923F924F925F926F927F928F9246
:101670009F92AF92BF92CF92DF92EF92FF920F9321
:101680001F93CF93DF93CDB7DEB7CA1BDB0B0FB62B
:10169000F894DEBF0FBECDBF09942A8839884888E8
:1016A0005F846E847D848C849B84AA84B984C8847E
:1016B000DF80EE80FD800C811B81AA81B981CE0F75
:1016C000D11D0FB6F894DEBF0FBECDBFED0108955A
:0416D000F894FFCFBC
:1016D4002020202020202020202020202020202006
:1016E40020202020202020202020202020202020F6
:1016F400202020202020202000436C6F636B206E6C
:101704006F74207365740020202057656C636F6DBF
:101714006520746F2054594B202020202020202045
:1017240020536563757269747900202020506173B9
:1017340073776F72642053657475700020456E74FE
:101744006572203420646967697420706173730062
:101754002563002A00256400253032643A2530329E
:10176400643A253032640053656C656374204172B9
:101774006D696E67204D6F646500312E204E6F7267
:101784006D616C00322E205661636174696F6E0066
:101794004D4F44453A204F464600202053656C6522
:1017A40063746564204E6F726D616C0020456E74C5
:1017B4006572205061737320746F204C4F434B004B
:1017C400202053656C65637465642056616361749D
:1017D400696F6E002053656375726974792044697A
:1017E4007361726D656400456E7465722050617337
:1017F4007320746F20554E4C4F434B0020202053D0
:10180400656375726974792041726D656400496E0F
:10181400636F72726563742050617373202D20545A
:10182400727920416761696E00494E5452554445AE
:101834005220414C455254212020202020504F4C0E
:10184400494345204E4F5449464945442100434F9E
:10185400554E54444F574E20544F20414C41524D05
:021864003A0048
:00000001FF
